S02200004C61625F30315F546F67676C655F45787465726E616C5F4C45442E737265639C
S11300000C9434000C943E000C943E000C943E007E
S11300100C943E000C943E000C943E000C943E0064
S11300200C943E000C943E000C943E000C943E0054
S11300300C943E000C943E000C943E000C943E0044
S11300400C943E000C943E000C943E000C943E0034
S11300500C943E000C943E000C943E000C943E0024
S11300600C943E000C943E0011241FBECFEFD8E048
S1130070DEBFCDBF0E9440000C945F000C940000D2
S113008084B1806284B987B1816087B91D9B07C040
S113009085B18F7D85B988B1816088B906C085B185
S11300A0806285B988B18E7F88B92FEF89E698E19F
S11300B0215080409040E1F700C00000E7CFF89461
S10500C0FFCF6C
S9030000FC
